:02000002B0004C
:1040000000400B0084960B00000006000C00050227
:084010000401A30F00000000F1
:04401800588D0B00B4
:1040200009480A49884208B505D0094A824202D0A7
:10403000121A02F0FEFE0748074A0021121A02F087
:1040400006FF014808BD00BF4CE4032070940B003C
:1040500038E6032038E60320EDE7032070B5074E6D
:10406000074C01F03FFBA41BA4080025AC4200D183
:1040700070BD56F8043B98470135F7E71C940B00D8
:1040800040940B0000F048B908B500F0D1F8BDE845
:10409000084001F0DFBA01F08FB801F08DB801F0EF
:1040A00093B80078B0FA80F040097047012303709C
:1040B0007047704710B59AB00C4601A802F0FEFE9A
:1040C000204602F0B3FE51EC100B02F03BFE034B16
:1040D0001860034B01221A701AB010BD00F40320BF
:1040E00060E60320436913B183690C3018477047B9
:1040F00013B500210446084600F04EFE002320467A
:1041000001A9019300F060FE019C0CB10123237111
:104110000021012000F040FE2CB1236820469B685E
:1041200098470023237102B010BD012A02D101601B
:1041300000207047022A04BF0B680360F8E7036899
:104140001847000010B5054B00220446114640F800
:10415000043B00F041FF204610BD00BFF08D0B0076
:1041600010B50446FFF7EEFF20462021FFF797FF2A
:10417000204610BD10B58368044613B103220146E2
:104180009847204610BD000037B5134B0360044626
:104190008068C8B100256FF00043CDE900350221E9
:1041A0002B462A4600F018FEA068294600F024FE9F
:1041B000237903F0FF0513B100F0E6FDF8E7A068EE
:1041C000294600F0F9FDA56004F10C00FFF7D2FFCD
:1041D000204603B030BD00BFDC8D0B0010B5044697
:1041E000FFF7D2FF20461C21FFF759FF204610BDE4
:1041F00010B50446006818B100F0E6FF0023236004
:1042000010BD38B5046805467CB16368013B636046
:104210005BB9236820469B689847A368013BA3606D
:104220001BB923682046DB689847284638BD000044
:1042300030B5184B1B789BB04BB300F09DFD164D6D
:104240000446286802F06CFA0B46144902460868D6
:1042500069680091241A1249019406A800F0C4FF6D
:10426000104B11491B788DF8003006AA3C2303A897
:1042700001F0B0FB04A8FFF7C4FFC82001F0BEF9AD
:1042800003A80A4901F06EF803A8FFF7B1FF1BB0BD
:1042900030BD00BF60E6032000F4032098E6032051
:1042A0006C8D0B0044E60320CD8D0B0048E6032007
:1042B00010B5144B144A1B78144986B003A88DF826
:1042C00000303C2301F086FB04A8FFF79AFFC820CA
:1042D00001F094F9002403A8CDE90344ADF814409B
:1042E00001F077FA0A48234622462146406800F04A
:1042F000F3FE084903A801F035F803A8FFF778FF9B
:1043000006B010BD44E603207E8D0B00808D0B00AF
:104310000CE7032048E603202DE9F041A54BD3F834
:104320000080A54B98B01E68B8F1000F00F0BF8068
:10433000404602F0E8FD0746002E00F0BA80304605
:1043400002F0E1FD0446382200210AA802F07FFDB8
:104350004C23CDE905389948099403238DF828307A
:1043600005AD002319462A464068954CCDE90776ED
:1043700000F0CAFE00F000FD924B1860A06830B15A
:104380000023CDE900331A46022100F025FDA06884
:1043900040B100236FF00042CDE9002319461A46D0
:1043A00000F01AFD884B894E00241C70337C03F00A
:1043B000030343F0A003301D22460121337400F0B3
:1043C0000BFEB37C43F00203B374814E30880121AD
:1043D00001F076FF013436F8020B002101F081FF75
:1043E000032CF3D10021052001F06AFF01210220F6
:1043F00001F066FF0021102001F062FF0021112072
:1044000001F05EFF734C01F0F3FF0146204600F01F
:104410008EFA0028F7D06F4800F09AFA002838D0BA
:104420006D4A6E496B4C284600F0CEF92946694822
:1044300000F097FA674800F04EFC6648012100F052
:1044400028FC6448022100F024FC62481C2100F092
:1044500002FB6048022100F006FC614903A800F05D
:1044600013FA0E2203A9204600F008FB0028F8D01A
:104470005C49584C284600F007FA95E80300039081
:10448000ADF81010042203A9204600F07AFB0028A2
:10449000F8D0554E337DCBB1032333723368DB68DC
:1044A000002B52D09A88012A0BD09B68F8E7474628
:1044B00042E7344647E79B68002B46D09A88012A9A
:1044C000F9D19A89052AF6D102229A73414801212D
:1044D00000F0F5FB00284ED03E48012100F0D9FB4A
:1044E0003C48022100F0D5FB102001F013FF3F4CA7
:1044F000642360604FF4AF62009340F6485100239C
:1045000001F070F8606000F02FFE0028FBD000245E
:104510003749384823462246CDE9004400F034FEAE
:10452000354B364A1B788DF80030284612683449DE
:104530003C2301F04FFA2046059D00F06FFD08B3C3
:104540006B78FBB900F008FEFAE72E49102001F065
:1045500073FF044658B31022002102F078FC2A4B66
:1045600023600123A3803369A3600523A381022371
:10457000A3733461AAE71748022100F0A0FB0028CA
:10458000AAD1B1E76B78BFF35B8F6C1C4BB10020F5
:1045900000F044FD20B1237813B900F0DDFDFAE707
:1045A0002B7806A8FFF72DFE18B0BDE8F081307516
:1045B0008CE700BF58E4032054E403200CE70320F9
:1045C0009CE6032098E6032060E6032078E60320BB
:1045D0004CE4032074E603208C8D0B00958D0B00BA
:1045E000A18D0B00AA8D0B0048E6032000F40320E8
:1045F000B5400B00B38D0B0044E6032064E60320B6
:10460000C18D0B00F88F0B0010000300F0B52D4B8F
:10461000012589B01D7000221421284600F00EFDEE
:1046200014220346009201952A466FF07F412648E6
:1046300000F046FE254B1A1D00241A60244A5A60D9
:10464000C3E902441D751C61224B049304AE224B46
:10465000224A1A6096E8030003F10C0202AF87E8D1
:10466000030092E8030086E8030097E8030082E86D
:1046700003001B4A5A619A6907921A4A1C719C608E
:104680009A6147F23051184A069403F10800CDE9C7
:10469000005400F089FB3046FFF76CFD134B144AC1
:1046A0009A60C3E90044284600F0A0FC2146284651
:1046B00000F0ACFC0F49104809B0BDE8F04000F034
:1046C00007BF00BF44E6032078E6032048E6032046
:1046D00010000300B1420B009CE60320DC8D0B00B0
:1046E0002B410B003F410B00F1400B0038E603204B
:1046F0000000FFFF7E8D0B0064E6032030B50F4CF9
:1047000000230133DDB28D4204D214F8015B2A4448
:1047100092B2F6E7022903D9830704BF013292B2AD
:1047200000EBC001C31C00EBC10000EB8000C3F331
:104730008D0301381844104480B230BD2E8E0B001A
:1047400003784078303BDBB20A2B28BF002303EB11
:104750008303303800EB4300C0B2704770B5144695
:1047600005460E460146104601F06EFC23683146B0
:104770009B6820469847204601F071FC012229469B
:10478000204601F05EFC236820465B699847C0B272
:1047900070BD70B51C460E4601461846154601F020
:1047A00053FC236831469B68204698472368294676
:1047B00020469B6898472046BDE8704001F04FBCFA
:1047C0000368C9B29B68184730B50D4685B00446EA
:1047D0000868496801AB03C32889A97A18809970D1
:1047E0000DF10D00FFF7ACFF9DF804302070413B48
:1047F000122B16D8DFE803F03215154615301515C3
:10480000150A151539444215151540009DF8053057
:10481000612B1FD09DF806306E2B0CBF062307239B
:10482000637002A8FFF78CFFA0701068516801AB9D
:1048300003C301A8FFF784FFE0700DF10700FFF745
:104840007FFF20710DF10A00FFF77AFF60712046AB
:1048500005B030BD0123E3E70223E1E79DF8063010
:10486000722B0CBF04230823DAE79DF80630722B65
:104870000CBF03230523D3E70923D1E70A23CFE79E
:104880000B23CDE70C23CBE7F0B5204B87B001AA73
:1048900004460D4603F1100C174618685968164671
:1048A00003C6083363453246F7D11868306038468E
:1048B00002F029FB0646284602F025FB86423246D6
:1048C000294628BF0246384602F0B3FA0DF1060029
:1048D000FFF736FF20700DF10900FFF731FF607020
:1048E00003A8FFF72DFFA0700DF10F00FFF728FFC1
:1048F000E0700DF11200FFF723FF20710DF115009C
:10490000FFF71EFF6071204607B0F0BD1A8E0B0046
:1049100008B5827841780078FFF7F0FE072306306B
:10492000B0FBF3F3C3EBC303C01AC0B208BD10B5AC
:1049300004460846216001F055FB2068682101F01B
:1049400087FB206801F08BFBB0FA80F0400910BDB6
:1049500008B50F2102686820FFF700FFC0F3C01000
:1049600008BD2DE9F04104460E460068682101F0BB
:104970006FFB2068036800219B6898477179206865
:104980000A25B1FBF5F303EB430301EB4301036895
:10499000C9B29B68984731792068B1FBF5F303EB06
:1049A000430301EB43010368C9B29B689847F17860
:1049B0002068B1FBF5F303EB430301EB430103680C
:1049C000C9B29B68984727683B683046D3F808808F
:1049D000FFF79EFF002808BF0720B0FBF5F101EBB1
:1049E000410100EB4101C9B23846C047B1782068A7
:1049F000B1FBF5F303EB430301EB43010368C9B2D9
:104A00009B68984771782068B1FBF5F303EB43038B
:104A100001EB43010368C9B29B689847206831786D
:104A20000368B1FBF5F505EB450501EB45019B6816
:104A3000C9B29847206801F012FB22680F21682054
:104A4000FFF78CFE236800F07F02BDE8F0410F21E4
:104A50006820FFF79EBE70B5044602680D466820C8
:104A60000E21FFF77BFE00F0E30040EA0502236819
:104A70000E21BDE870406820FFF78BBE2DE9F0479E
:104A800005468A4691460E2102686820FFF766FEB9
:104A9000064610F0040065D02868682101F0D8FAB5
:104AA00028680721FFF78CFE9AF8051028680A2469
:104AB000B1FBF4F303EB430301EB430141EAC911FA
:104AC000C9B2FFF77DFE9AF80410B1FBF4F303EBD3
:104AD000430301EB43014FEA891323F07F0319439A
:104AE0002868C9B2FFF76CFE9AF80310B1FBF4F323
:104AF0004FEA09174FEA890803EB43034FEA4919C4
:104B000001EB430129F07F0941EA090108F040085F
:104B10002868C9B207F08007FFF752FEB8F1000F0E
:104B200022D05046FFF7F4FE011E08BF0721B1FB5B
:104B3000F4F404EB4404D5F8009001EB440147EA97
:104B400008073943C9B24846FFF73AFE286801F022
:104B500086FA46F0010268202B68D2B20E21FFF7D8
:104B600018FE0120BDE8F0879AF80210B1FBF4F4BA
:104B700004EB440401EB440447EA04012868C9B289
:104B8000E2E72DE9F04705468A4691460E21026884
:104B90006820FFF7E3FD064610F0040054D02868B3
:104BA000682101F055FA28680B21FFF709FE9AF8F1
:104BB000041028680A24B1FBF4F303EB430301EB70
:104BC000430141EAC911C9B2FFF7FAFD9AF803108F
:104BD000B1FBF4F34FEA49174FEAC90803EB43036B
:104BE0004FEA891901EB430129F07F0941EA0901E4
:104BF00008F040082868C9B207F08007FFF7E0FD19
:104C0000B8F1000F22D05046FFF782FE011E08BF08
:104C10000721B1FBF4F404EB4404D5F8009001EB58
:104C2000440147EA08073943C9B24846FFF7C8FDBF
:104C3000286801F014FA46F0020268202B68D2B20C
:104C40000E21FFF7A6FD0120BDE8F0879AF80210BB
:104C5000B1FBF4F404EB440401EB440447EA04011F
:104C60002868C9B2E2E770B5054602680C466820BC
:104C70000E21FFF773FD013C012202FA04F420EA41
:104C800004002B68C2B2BDE870400E216820FFF717
:104C900080BD70B5054602680C4668200F21FFF7FD
:104CA0005DFD013C012202FA04F420EA04002B68B5
:104CB000C2B2BDE870400F216820FFF76ABD10B591
:104CC0000C4602680F216820FFF748FD013C204197
:104CD00000F0010010BD10B50F21026804466820E5
:104CE000FFF73CFD236800F0F702BDE810400F21FC
:104CF0006820FFF74EBD000008B5024B1B689B689B
:104D0000019308BD6802030008B5024B1B68DB680D
:104D1000019308BD6802030008B5024B1B685B687D
:104D2000019308BD2C02030008B5024B1B689B6869
:104D3000019308BD2C02030008B5024B1B68DB6819
:104D4000019308BD2C02030008B5024B1B681B69C8
:104D5000019308BD2C02030008B5024B1B681B6BB6
:104D6000019308BD2C02030008B5024B1B685B6869
:104D7000019308BD1802030008B5024B1B685B696C
:104D8000019308BD1802030008B5024B1B68DB68DD
:104D9000019308BD4802030008B5024B1B68DB699C
:104DA000019308BD4802030008B5024B1B681B6A4B
:104DB000019308BD4802030008B5024B1B685B6AFB
:104DC000019308BD4802030008B5024B1B689B6AAB
:104DD000019308BD4802030008B5024B1B68DB6A5B
:104DE000019308BD4802030008B5024B1B685B6CC9
:104DF000019308BD4802030008B5024B1B681B6FF6
:104E0000019308BD4802030008B5024B1B685B69AB
:104E1000019308BD6402030008B5024B1B68DB6800
:104E2000019308BD3C02030008B5024B1B681B69D7
:104E3000019308BD3C02030008B5024B1B685B6987
:104E4000019308BD3C02030008B5024B1B689B6937
:104E5000019308BD3C02030008B5024B1B68DB69E7
:104E6000019308BD3C02030008B5024B1B681B6A96
:104E7000019308BD3C02030008B5024B1B689B6A06
:104E8000019308BD3C02030008B5024B1B681B6C74
:104E9000019308BD3C02030008B5024B1B68DB68A8
:104EA000019308BD2802030008B5024B1B689B69EB
:104EB000019308BD2802030008B5024B1B68DB699B
:104EC000019308BD2802030008B5024B1B681B6A4A
:104ED000019308BD2802030008B5024B1B685B6AFA
:104EE000019308BD2802030008B5024B1B689B6AAA
:104EF000019308BD2802030008B5024B1B68DB6A5A
:104F0000019308BD2802030008B5024B1B681B6B08
:104F1000019308BD2802030008B5024B1B685B6BB8
:104F2000019308BD2802030008B5024B1B681B6CE7
:104F3000019308BD2802030008B5024B1B681B6DD6
:104F4000019308BD2802030008B5024B1B68DB690A
:104F5000019308BD3002030008B5024B1B681B6AB1
:104F6000019308BD3002030008B5024B1B681B68A3
:104F7000019308BD4C02030008B5024B1B681B6976
:104F8000019308BD4C02030008B5024B1B685B6926
:104F9000019308BD4C02030008B5024B1B689B69D6
:104FA000019308BD4C02030008B5024B1B68DB6986
:104FB000019308BD4C02030008B5024B1B681B6A35
:104FC000019308BD4C02030008B5024B1B681B6D22
:104FD000019308BD6002030008B5034B1B68D3F8BA
:104FE0008030019308BD00006002030008B5024B49
:104FF0001B685B68019308BD2002030008B5024BE3
:105000001B685B69019308BD2002030008B5024BD1
:105010001B68DB6A019308BD2002030008B5024B40
:105020001B68DB6C019308BD2002030008B5024B2E
:105030001B685B6D019308BD2002030008B5024B9D
:105040001B68DB6F019308BD2002030008B5034B0A
:105050001B68D3F88830019308BD000020020300CC
:1050600008B5034B1B68D3F89430019308BD0000CA
:105070002002030008B5034B1B68D3F8A830019346
:1050800008BD00002002030008B5024B1B685B68E6
:10509000019308BD4002030008B5024B1B689B68E2
:1050A000019308BD4002030008B5024B1B68DB6892
:1050B000019308BD4002030008B5024B1B681B6941
:1050C000019308BD4002030008B5024B1B685B69F1
:1050D000019308BD4002030008B5024B1B689B69A1
:1050E000019308BD4002030008B5024B1B68DB6951
:1050F000019308BD4002030008B5024B1B681B6A00
:10510000019308BD4002030008B5024B1B689B6A6F
:10511000019308BD4002030008B5024B1B681B6BDE
:10512000019308BD4002030008B5024B1B685B6B8E
:10513000019308BD4002030008B5024B1B681B6CBD
:10514000019308BD4002030008B5024B1B685B6C6D
:10515000019308BD4002030008B5024B1B689B6821
:10516000019308BD4402030008B5024B1B685B694C
:10517000019308BD4402030008B5024B1B681B6A7B
:10518000019308BD4402030008B5024B1B685B6A2B
:10519000019308BD4402030008B5024B1B68DB6B9A
:1051A000019308BD4402030008B5024B1B685B6C09
:1051B000019308BD4402030008B5024B1B681B683D
:1051C000019308BD1C02030008B5024B1B685B6815
:1051D000019308BD1C02030008B5024B1B689B68C5
:1051E000019308BD1C02030008B5024B1B68DB6875
:1051F000019308BD1C02030008B5024B1B68DB6A63
:10520000019308BD1C02030008B5024B1B681B6B11
:10521000019308BD1C02030008B5024B1B681B6C00
:10522000019308BD1C02030008B5024B1B685B6CB0
:10523000019308BD1C020300002240681146FFF7DD
:105240005BBF002240681146FFF76EBF4068002236
:10525000FFF762BF4068002281F00101FFF744BF01
:10526000002340681A461946FFF736BF00234068FE
:105270001A461946FFF728BF002240681146FFF77B
:105280001BBF002240681146FFF706BF406800229E
:105290000221FFF709BF002340681A46FFF7F4BE5A
:1052A000024B03225A60024A1A607047B8E6032094
:1052B000448E0B000A680B46926801461846104758
:1052C00070B50E4C046000251C24C0E901459DF812
:1052D00014409DF81060C56004F0030444EA86049D
:1052E000E4B20474427485744161427C0F2A0ABF9F
:1052F000034B0383C0E9063070BD00BFF08D0B0087
:10530000B5520B0010B5044608462170FFF71CFE8D
:1053100000236360204610BD38B50C460546FEF7F5
:1053200067FF54B12088FFF747FF286028B1228823
:105330002146BDE8384001F07CBD38BD38B5B1F933
:1053400004308380D1F80630C0F806304B894381A1
:105350000C460546FEF74CFF236813B12B60002373
:10536000236038BDF0B52B4D0B7D04468BB008464D
:10537000AF1D002B36D00B681B79002B32D0264B8B
:105380000493002202A90430CDE90222FFF772FE45
:10539000DDF80E30C5F8063000B2BDF81230ADF8B9
:1053A0000C00A8800299BB802846FFF7B5FF02A831
:1053B000FEF71EFF00232360A380A37123814FF615
:1053C000FF736381B5F90430A380D5F80630C4F8C3
:1053D0000630BB88296863812046FFF79DFF204681
:1053E0000BB0F0BD00262023CDE902360B4B009315
:1053F00002AA33460A493220FFF7E6FD064B05486C
:1054000002964FF6F26202A9CDE90323FFF796FF59
:10541000CDE700BFC0E603200000FFFF7F8E0B003A
:10542000788E0B00054B02221A60054B054A9A60E4
:105430000020C3E90000FFF7D9BD00BFCCE6032080
:10544000C0E603200000FFFF10B50446006808B165
:10545000FFF7BAFE0023C4E90133236010BD38B55D
:1054600004460D4600680131FFF7B6FE10B1C4E9ED
:105470000005012038BD10B50368044623B1436818
:105480008B4201D3012010BD2046FFF7E8FF002822
:10549000F9D0A368002BF5D122681370F2E737B575
:1054A0000D46114601920446FFF7E5FF019A28B91F
:1054B0002046FFF7C9FF204603B030BDA260294651
:1054C000206801F0B6FC2268A3680021D154F2E7FD
:1054D000002313B5C0E9003304468360037341B170
:1054E0000846019101F00FFD019902462046FFF7A1
:1054F000D6FF204602B010BD13B50B460246D0E9D8
:1055000000016C4684E8030093E8030082E803008E
:1055100094E8030083E8030002B010BD02480023B2
:105520000360FFF761BC00BFD0E60320F8B5064674
:105530000D468F180024BD420CD0336815F8011BAE
:105540009B6830469847031E01DB1C44F3E7002CA0
:1055500008BF1C462046F8BD13B50446084659B19D
:10556000019101F0D0FC23680199DB6802462046D6
:1055700002B0BDE81040184702B010BD03689B6838
:10558000184730B58BB00023012A8DF8243098BF1E
:105590000A2209AC0D46B1FBF2F101FB125303F0F4
:1055A000FF03092B94BF30333733DBB2AA4204F830
:1055B000013DEFD92146FFF7CFFF0BB030BD000012
:1055C000014B024A1A607047D4E60320A68E0B00F6
:1055D000024B1A68024B1A60704700BF5CE403205C
:1055E000D8E603208A4210B507D0441A0298C01AA0
:1055F0004443501A94FBF0F0184410BD0021FFF70B
:10560000FDBC0000014B00229A607047DCE60320DD
:10561000014B1860704700BF60E4032008B50B4BD6
:1056200043B100F015FC03681B699847002801DDB1
:10563000AFF30080064B43B100F09EFE03681B6988
:105640009847002801DDAFF3008008BD000000008E
:105650000000000008B5FFF7E1FFFFF78DFB014BED
:10566000186008BD40E703200548064A064908B50A
:10567000121A01F0DEFB054B054A1A6008BD00BF97
:1056800000F403200CF4032064940B0008F40320BE
:105690001E1C279A07B5002300931A466FF0770166
:1056A000FFF7DEFC03B05DF804FB000007B543889C
:1056B0000A2B08D0502B0BD1094B1B684BB103B000
:1056C0005DF804EB1847FFF7E5FF03B05DF804FB56
:1056D000002300931A466FF07701FFF7C1FCF4E74F
:1056E000F0E6032010B512480021FFF79DFD114B95
:1056F0001A68114B9A42114B0CBF012200221A70FA
:1057000001D0FFF7B1FFFFF72FFB044601F0A8FB24
:105710000B4B13B12046AFF3008000210848FFF780
:105720003BFDBDE8104007480021FFF78FBC00BFDC
:1057300011560B0008F403201E1C279AECE60320E8
:1057400000000000AD560B0070470020704710B5F8
:1057500010210446FEF7A3FC204610BD08B5FFF754
:10576000F6FF08BD30B500224FF69C7402608480BD
:105770008D888C800C68858004600A6030BD10B50F
:1057800004460068FFF720FD204610BD38B5C46808
:10579000F4B12378022B03D104F10C00FFF7EFFFE3
:1057A000656835B12846FEF7E5FC10212846FEF76E
:1057B00076FCA56835B12846FEF7DCFC10212846AA
:1057C000FEF76DFC20461421BDE83840FEF767BCAB
:1057D00038BD1FB50C23ADF8043003688DF80630D2
:1057E000037A8DF80730436802930021437AADF8BD
:1057F0000D1001A88DF80F108DF80C30FFF7D4FCB8
:1058000005B05DF804FB0B6803604B68436013B19F
:105810005A6801325A60704737B5044668460D46EB
:10582000FFF7F1FF009B019A23606260002301A84B
:1058300001930093FEF7E5FC35B1281DFEF7E1FC6E
:1058400008212846FEF72BFC204603B030BD8268B5
:1058500010B50AB900F0F4FDBDE81040C368184760
:1058600008B5006800F11001FFF7F1FF08BD82687C
:1058700010B50AB900F0E4FDBDE81040C368184750
:1058800008B5006800F11001FFF7F1FF08BD000046
:1058900038B500230446036010200D46FEF7FBFBDD
:1058A00028B10123C0E90133024B0360C5602060C9
:1058B000204638BDD08E0B0038B5002383608B683E
:1058C00004460D462BB102229847EB68E360AB68B3
:1058D000A360204638BD0000F0B589B00468684672
:1058E000FFF740FF4FF00203D4E84F2F002A03D107
:1058F000C4E8413F0029F7D125D104F10C056946E0
:105900002846FFF72FFFBFF35B8F01236370002052
:1059100004F10803BFF35B8F53E8006F43E8000214
:10592000002AF9D1BFF35B8F6EB1FFF777FB78B137
:1059300029463046FFF78BFF3046FEF71BFC10214F
:105940003046FEF7ACFB6846FFF719FF09B0F0BD23
:10595000314602A8FFF7B0FFE068B4F9105008B173
:1059600001F0B4FA06901020ADF81C50FEF793FB3E
:105970000546E8B1002787601820FEF78CFB044637
:1059800088B10146876002A8FFF7B6FD049BA268B4
:10599000A360059B049206A9E268E36004F110008D
:1059A0000592FFF7DFFE084BEB60084B2C60AB6005
:1059B00006A8FFF7E4FE02A8FEF7DCFB002229465A
:1059C0000348FFF733FBB7E761580B00E55A0B00BC
:1059D000415F0B002DE9F04F8BB005469DF850A0BC
:1059E0000F4690469946FFF7BFFB07AE834638BB8C
:1059F0004FF62E73059005A93046ADF81830FFF725
:105A0000B1FE1420FEF747FB044648B102230370A1
:105A10000123C0E901BB437031460C30FFF7A2FE01
:105A20002846214640F8044BFFF732FF3046FFF787
:105A3000A6FE05A8FFF7A3FE28460BB0BDE8F08F31
:105A40000C2300241420CDE908440793FEF723FB20
:105A5000014618B1C0E901440470447004A80391E0
:105A6000FFF716FF1E4B08930820FEF714FB0446B1
:105A700010B103A9FFF7C7FE00965FFA8AF34A4602
:105A8000414638460994FFF777FBB8B9039B5B782A
:105A900003F0FF0293B94FF69C7305A903A8059282
:105AA000ADF81830FFF718FF05A8FFF768FE05A846
:105AB0000999FFF7B1FE06A8FEF7A3FB03A905A805
:105AC000FFF7A1FE059B069A2B606A60002306A8DB
:105AD00006930593FEF795FB04A8FEF792FBABE750
:105AE000615B0B00012AF8B5054603D10B68036022
:105AF0000020F8BD022A10D0032AF9D10468002C36
:105B0000F6D004F11000FFF73AFE2046FEF732FB14
:105B100018212046FEF7C3FAEAE718200E68FEF7C0
:105B2000BAFA044650B13146FFF7C6FE3069B6F9FD
:105B3000147008B101F0CAF92061A7822C60D7E780
:105B400038B5002383608B6804460D462BB10222D2
:105B50009847EB68E360AB68A360204638BD00005F
:105B6000F0B589B004460D4601A81146FFF754FE72
:105B7000A4B124B21DB1284601F0A8F9054601A838
:105B800003A90395ADF81040FFF7A6FE03A8FFF7A1
:105B9000F6FD02A8FEF735FB09B0F0BD019D01231B
:105BA000D5E84F2F002A03D1C5E8413F0029F7D19E
:105BB000EFD12B73BFF35B8F6B702B1DBFF35B8F2C
:105BC00053E8006F43E80042002AF9D1BFF35B8F2E
:105BD000002EDED02046FFF721FA074660B105F11E
:105BE0000C013046FFF743FE3046FEF7C3FA1021A2
:105BF0003046FEF754FACCE7314603A8FFF7A0FF82
:105C00002B7B8DF81C301020FEF745FA0546D0B1ED
:105C100087601420FEF73FFA044678B1876001469A
:105C200003A8FFF769FC059BA268A360069B059289
:105C3000E268E3609DF81C3006922374064BEB602B
:105C4000064B2C60AB6003A8FEF794FA00222946AD
:105C50000348FFF7EBF9C7E781580B00655C0B00C1
:105C6000415F0B00012A70B5044603D10B68036045
:105C7000002070BD022A0CD0032AF9D10468002C40
:105C8000F6D02046FEF776FA14212046FEF707FAF2
:105C9000EEE714200E68FEF7FEF9054620B1314606
:105CA000FFF74EFF337C2B742560E1E7704710B59A
:105CB00018210446FEF7F3F9204610BDF0B5037D28
:105CC000062B8DB00E4600F104074FF0000412D0F1
:105CD00000F1080515F8011D0A223046FFF751FCB6
:105CE000AF42044419D0002CF4D02E213046FFF7E7
:105CF00045FC0444EEE72F236A4639460A208DF816
:105D00000040FFF781F8684601F0FDF8336802466D
:105D1000DB68694630469847044620460DB0F0BD22
:105D200010B5054B0446112240F8043B002101F058
:105D30008EF8204610BD00BFEC8E0B000346074ACC
:105D400010B543F8042B01F1100251F8044B43F84D
:105D5000044B9142F9D10A781A7010BDEC8E0B00F9
:105D600010B59DF8084044EA032343EA024242EAA0
:105D7000016104234160037510BD000007B5064BA7
:105D80000360CB7800938B784A780978FFF7E8FFB7
:105D900003B05DF804FB00BFEC8E0B00417470474C
:105DA0007047704708B50021007CFFF7F5F840EA1E
:105DB000E07008BD08B50121007CFFF7EDF840EA6E
:105DC000E07008BD08B5007CFFF7DEF820EAE0705F
:105DD00008BD08B5007CFFF7CFF820EAE07008BDE9
:105DE00013B50446007C0191FFF7CEF80028019915
:105DF00001DC607C20B1207CFFF7D6F820EAE0705F
:105E000002B010BD007CFFF7D7B810B514210446CE
:105E1000FEF745F9204610BD10B54FF47A730446DD
:105E200008460021C4E90113044B236001232074B8
:105E300063741146FFF798F8204610BD008F0B00E1
:105E400010B514220446002101F001F8204610BDCF
:105E500010B50F4C88B003A8FFF7F2FF2178BFF30D
:105E60005B8F11F001010FD120460191FEF719F966
:105E7000019948B103AA0748FFF7CEFF2046FEF775
:105E800015F9054800F0CCFF024808B010BD00BF6E
:105E9000F4E60320F8E60320A15D0B00704741748F
:105EA000704708B5007CFEF7E7FF20EAE07008BD08
:105EB00008B5007CFEF7B8FF20EAE07008BD08B521
:105EC000007CFEF7C1FF40EAE07008BD08B5007C29
:105ED000FEF7B2FF40EAE07008BD007CFEF7BCBFF1
:105EE00037B5457C04462DB1207C03B0BDE8304079
:105EF000FEF792BF007C0191FEF7BEFF00280199DA
:105F0000F2DC284603B030BD10B514210446FEF77C
:105F1000C6F8204610BD000010B54FF47A73044651
:105F2000084611460022C4E90123044B23600123E3
:105F300020746374FEF7A8FF204610BD308F0B005D
:105F400010B5836804460BB900F07AFAC368984725
:105F5000A3681BB103222146204698472046102102
:105F6000BDE81040FEF79BB87047F8B506461546E9
:105F70000C468F18BC4206D0336814F8011B9B688E
:105F800030469847F6E72846F8BD007C0022FEF729
:105F90009BBF007C0021FEF79FBF007C0021FEF725
:105FA000A3BF007C0021FEF7A7BF007C0021FEF705
:105FB000ABBF10B514210446FEF771F8204610BDA2
:105FC00010B54FF47A73044608460021C4E9011362
:105FD000034B236020741146FEF7A6FF204610BD38
:105FE000608F0B000023007C1A461946FEF754BF51
:105FF0007FB500221423CDE90122ADF804300B78DF
:106000008DF808304B680393CB680493007C0B7ABF
:10601000059301A9FEF790FF07B05DF804FB1FB5DB
:10602000003B8DF800104FF06401039118BF01236D
:10603000694601928DF80830FFF7DAFF05B05DF888
:1060400004FB0123FFF7EBBF007C0022FEF72CBF0F
:10605000C9B2FFF7F9BF007C0022FEF72DBF012176
:10606000FFF7F9BF002240681146FFF725B800226C
:1060700040681146FFF740B8002240681146FFF71C
:1060800053B840680022FFF747B84068002281F00B
:106090000101FFF729B8002340681A461946FFF7A7
:1060A0001BB8002340681A461946FFF70DB80022B6
:1060B00040681146FEF7F0BF406800220221FEF75B
:1060C000F3BF002340681A46FEF7DEBF024B0422EE
:1060D0005A60024A1A6070470CE70320888F0B0051
:1060E000002340681A46FEF7CFBF40680022022115
:1060F000FEF7DABF002240681146FEF7CDBF00224E
:1061000040681146FEF7D8BF002340681A4619467A
:10611000FEF7DABF002340681A461946FEF7DCBFD7
:1061200040680021FFF708B840680021FFF70CB86D
:106130004068002281F00101FEF7D6BF40680022CE
:10614000FEF7EABF002240681146FEF7EDBF0022CD
:1061500040681146FEF7D0BF2DE9F04395B01446D4
:106160000D460746FFF7DCFD00211C220DA800911B
:1061700000F06DFE40230C9320466B460CAA0021D4
:10618000FEF7C2FD044600284BD102460121686893
:10619000FEF792FF0221804622466868FEF78CFFD8
:1061A000009E81462146002E3BD0002939D17368DC
:1061B000022B03D00A2B11D0F669F4E7B8F1000FD7
:1061C000FAD0716906A8043107ADFFF7D7FD0FCDEE
:1061D0003C1D0FC42B6823704146EDE7B9F1000F59
:1061E000EAD07469102201A800F031FE06238DF870
:1061F000143001AD04F108031834186859682A46B0
:1062000003C20833A3421546F7D101A906A807AD7A
:10621000FFF794FD0FCD3C1D0FC42B68237049463A
:10622000CAE70098FEF768FD384615B0BDE8F08370
:10623000024B034A1A6000225A60704714E7032099
:10624000C48F0B00232813B502D9002002B010BD63
:10625000A0F10B03022B1AD8174C2178BFF35B8FE8
:1062600011F001010BD120460191FDF71AFF0199B0
:1062700028B11248FFF746F82046FDF717FF0F4BED
:106280001878FEF769FE0028DFD10120DEE701283B
:1062900009D800F0ADF80021007CFEF73DFE80F04B
:1062A0000100C0B2D2E709380128EED800F064F846
:1062B000007CFEF7D9FDF2E71CE7032020E703206E
:1062C000232838B504460D460AD8FF2908D0FFF721
:1062D000B9FF28B129462046BDE83840FEF724BD65
:1062E00038BD38B504460D46FEF726FDFF2810D010
:1062F000062804D84D2323FA00F0C30709D420460A
:10630000FFF7A0FF28B129462046BDE83840FEF738
:106310001BBD38BD0D2810B504469CBF0E34A4B279
:106320002046FFF78FFF50B103212046FEF7F4FC13
:10633000032804D12046BDE81040FEF70DBD002023
:1063400010BD704738B5044614252A46002100F0D8
:106350007EFD25804025074925812846258200F0BD
:106360006DF804496060284600F068F8E060204657
:1063700038BD00BFF88F0B0030B50E4D2978BFF344
:106380005B8F11F0010487B011D12846FDF789FE1B
:1063900068B101A8FFF7D6FF01AA21460648FFF71A
:1063A000BBFD2846FDF782FE044800F039FD024897
:1063B00007B030BD28E703202CE7032043630B0020
:1063C0007047000038B5202514230446036085601B
:1063D00005610649284600F031F804496060284606
:1063E00000F02CF8E060204638BD00BFF88F0B00AD
:1063F00030B50E4D2978BFF35B8F11F0010487B0E3
:1064000011D12846FDF74DFE68B101A8FFF7DAFF6C
:1064100001AA21460648FFF7D3FD2846FDF746FEB0
:10642000044800F0FDFC024807B030BD44E70320FB
:1064300048E70320C1630B00FDF72DBEFDF72DBE1D
:1064400008B5FEF7D9FE00009FED010B704700BFB5
:10645000000000000000F87F81F0004102E000BF72
:1064600083F0004330B54FEA41044FEA430594EA14
:10647000050F08BF90EA020F1FBF54EA000C55EA4F
:10648000020C7FEA645C7FEA655C00F0E2804FEA20
:106490005454D4EB5555B8BF6D420CDD2C4480EA02
:1064A000020281EA030382EA000083EA010180EA32
:1064B000020281EA0303362D88BF30BD11F0004F80
:1064C0004FEA01314FF4801C4CEA113102D04042B6
:1064D00061EB410113F0004F4FEA03334CEA1333F1
:1064E00002D0524263EB430394EA050F00F0A78009
:1064F000A4F10104D5F1200E0DDB02FA0EFC22FA04
:1065000005F2801841F1000103FA0EF2801843FAF7
:1065100005F359410EE0A5F120050EF1200E012AE8
:1065200003FA0EFC28BF4CF0020C43FA05F3C01826
:1065300051EBE37101F0004507D54FF0000EDCF19F
:10654000000C7EEB00006EEB0101B1F5801F1BD348
:10655000B1F5001F0CD349085FEA30004FEA3C0C4C
:1065600004F101044FEA445212F5800F80F09A8042
:10657000BCF1004F08BF5FEA500C50F1000041EB46
:10658000045141EA050130BD5FEA4C0C404141EB4A
:106590000101013C28BFB1F5801FE9D291F0000F45
:1065A00004BF01460020B1FA81F308BF2033A3F1F4
:1065B0000B03B3F120020CDA0C3208DD02F1140CEB
:1065C000C2F10C0201FA0CF021FA02F10CE002F126
:1065D0001402D8BFC2F1200C01FA02F120FA0CFC1F
:1065E000DCBF41EA0C019040E41AA2BF01EB045168
:1065F000294330BD6FEA04041F3C1CDA0C340EDC66
:1066000004F11404C4F1200220FA04F001FA02F3A8
:1066100040EA030021FA04F345EA030130BDC4F166
:106620000C04C4F1200220FA02F001FA04F340EA5B
:106630000300294630BD21FA04F0294630BD94F00C
:10664000000F83F4801306BF81F480110134013DF3
:106650004EE77FEA645C18BF7FEA655C29D094EA64
:10666000050F08BF90EA020F05D054EA000C04BFE2
:106670001946104630BD91EA030F1EBF00210020CD
:1066800030BD5FEA545C05D14000494128BF41F06C
:10669000004130BD14F580043CBF01F5801130BDD0
:1066A00001F0004545F0FE4141F470014FF000005B
:1066B00030BD7FEA645C1ABF194610467FEA655C0C
:1066C0001CBF0B46024650EA013406BF52EA0335AE
:1066D00091EA030F41F4002130BD00BF90F0000F9C
:1066E00004BF0021704730B54FF4806404F13204D8
:1066F0004FF000054FF0000150E700BF90F0000F91
:1067000004BF0021704730B54FF4806404F13204B7
:1067100010F0004548BF40424FF000013EE700BF87
:1067200042004FEAE2014FEA31014FEA02701FBF17
:1067300012F07F4393F07F4F81F06051704732F049
:106740007F4208BF704793F07F4F04BF41F40021A0
:10675000704730B54FF4607401F0004521F00041FE
:106760001CE700BF50EA010208BF704730B54FF088
:1067700000050AE050EA010208BF704730B511F089
:10678000004502D5404261EB41014FF4806404F1C1
:1067900032045FEA915C3FF4D8AE4FF003025FEA47
:1067A000DC0C18BF03325FEADC0C18BF033202EBCB
:1067B000DC02C2F1200300FA03FC20FA02F001FA25
:1067C00003FE40EA0E0021FA02F11444BDE600BFC8
:1067D00070B54FF0FF0C4CF4E06C1CEA11541DBF77
:1067E0001CEA135594EA0C0F95EA0C0F00F0DEF842
:1067F0002C4481EA030621EA4C5123EA4C5350EA27
:10680000013518BF52EA033541F4801143F4801377
:1068100038D0A0FB02CE4FF00005E1FB02E506F008
:106820000042E0FB03E54FF00006E1FB03569CF05D
:10683000000F18BF4EF0010EA4F1FF04B6F5007F63
:1068400064F5407404D25FEA4E0E6D4146EB0606D5
:1068500042EAC62141EA55514FEAC52040EA5E505E
:106860004FEACE2EB4F1FD0C88BFBCF5E06F1ED808
:10687000BEF1004F08BF5FEA500E50F1000041EB3F
:10688000045170BD06F0004646EA010140EA0200EC
:1068900081EA0301B4EB5C04C2BFD4EB0C0541EA0E
:1068A000045170BD41F480114FF0000E013C00F323
:1068B000AB8014F1360FDEBF002001F0004170BD47
:1068C000C4F10004203C35DA0C341BDC04F1140460
:1068D000C4F1200500FA05F320FA04F001FA05F2EC
:1068E00040EA020001F0004221F0004110EBD370B9
:1068F00021FA04F642EB06015EEA430E08BF20EAE5
:10690000D37070BDC4F10C04C4F1200500FA04F387
:1069100020FA05F001FA04F240EA020001F0004119
:1069200010EBD37041F100015EEA430E08BF20EA8C
:10693000D37070BDC4F1200500FA05F24EEA020ED4
:1069400020FA04F301FA05F243EA020321FA04F003
:1069500001F0004121FA04F220EA020000EBD370BA
:106960005EEA430E08BF20EAD37070BD94F0000FBA
:106970000FD101F00046400041EB010111F4801FEE
:1069800008BF013CF7D041EA060195F0000F18BF9F
:10699000704703F00046520043EB030313F4801FDB
:1069A00008BF013DF7D043EA0603704794EA0C0F95
:1069B0000CEA135518BF95EA0C0F0CD050EA4106AB
:1069C00018BF52EA4306D1D181EA030101F0004128
:1069D0004FF0000070BD50EA410606BF1046194650
:1069E00052EA430619D094EA0C0F02D150EA01365C
:1069F00013D195EA0C0F05D152EA03361CBF10469D
:106A000019460AD181EA030101F0004141F0FE413B
:106A100041F470014FF0000070BD41F0FE4141F4BF
:106A2000780170BD70B54FF0FF0C4CF4E06C1CEABF
:106A300011541DBF1CEA135594EA0C0F95EA0C0F74
:106A400000F0A7F8A4EB050481EA030E52EA03352F
:106A50004FEA013100F088804FEA03334FF0805550
:106A600045EA131343EA12634FEA022245EA11157D
:106A700045EA10654FEA00260EF000419D4208BF2E
:106A8000964244F1FD0404F5407402D25B084FEADB
:106A90003202B61A65EB03055B084FEA32024FF487
:106AA00080104FF4002CB6EB020E75EB030E22BFE4
:106AB000B61A754640EA0C005B084FEA3202B6EBA4
:106AC000020E75EB030E22BFB61A754640EA5C0053
:106AD0005B084FEA3202B6EB020E75EB030E22BFE3
:106AE000B61A754640EA9C005B084FEA3202B6EBE4
:106AF000020E75EB030E22BFB61A754640EADC00A3
:106B000055EA060E18D04FEA051545EA16754FEA04
:106B100006164FEAC30343EA52734FEAC2025FEA22
:106B20001C1CC0D111F4801F0BD141EA00014FF0B1
:106B300000004FF0004CB6E711F4801F04BF014382
:106B40000020B4F1FD0C88BFBCF5E06F3FF6AFAE9E
:106B5000B5EB030C04BFB6EB020C5FEA500C50F12E
:106B6000000041EB045170BD0EF0004E4EEA1131B1
:106B700014EB5C04C2BFD4EB0C0541EA045170BDB8
:106B800041F480114FF0000E013C90E645EA060EFC
:106B90008DE60CEA135594EA0C0F08BF95EA0C0F2A
:106BA0003FF43BAF94EA0C0F0AD150EA01347FF472
:106BB00034AF95EA0C0F7FF425AF104619462CE749
:106BC00095EA0C0F06D152EA03353FF4FDAE1046AC
:106BD000194622E750EA410618BF52EA43067FF4FD
:106BE000C5AE50EA41047FF40DAF52EA43057FF48D
:106BF000EBAE12E74FF0FF3C06E000BF4FF0010C98
:106C000002E000BF4FF0010C4DF804CD4FEA410CFB
:106C10007FEA6C5C4FEA430C18BF7FEA6C5C1BD0C8
:106C200001B050EA410C0CBF52EA430C91EA030F49
:106C300002BF90EA020F0020704710F1000F91EAA6
:106C4000030F58BF994208BF90422CBFD8176FEA74
:106C5000E37040F0010070474FEA410C7FEA6C5C42
:106C600002D150EA013C07D14FEA430C7FEA6C5C49
:106C7000D6D152EA033CD3D05DF8040B704700BF75
:106C80008446104662468C461946634600E000BFC3
:106C900001B5FFF7B7FF002848BF10F1000F01BD95
:106CA0004DF808EDFFF7F4FF0CBF012000205DF860
:106CB00008FB00BF4DF808EDFFF7EAFF34BF0120E5
:106CC00000205DF808FB00BF4DF808EDFFF7E0FF7E
:106CD00094BF012000205DF808FB00BF4DF808EDCF
:106CE000FFF7CEFF94BF012000205DF808FB00BF36
:106CF0004DF808EDFFF7C4FF34BF012000205DF818
:106D000008FB00BF4A0011D212F5001211D20DD5B6
:106D10006FF47873B3EB62520ED44FEAC12343F0A1
:106D2000004343EA505323FA02F070474FF000004B
:106D3000704750EA013002D14FF0FF3070474FF0FA
:106D4000000070474FEA4102B2F1E04324BFB3F5BF
:106D5000001CDCF1FE5C0DD901F0004C4FEAC002D2
:106D60004CEA5070B2F1004F40EB830008BF20F0B6
:106D70000100704711F0804F21D113F13872BCBF70
:106D800001F00040704741F480114FEA5252C2F1C5
:106D90001802C2F1200C10FA0CF320FA02F018BF0E
:106DA00040F001004FEAC1234FEAD32303FA0CFC61
:106DB00040EA0C0023FA02F34FEA4303CCE77FEAF0
:106DC000625307D150EA01331EBF4FF0FE4040F43A
:106DD0004000704701F0004040F0FE4040F40000E9
:106DE000704700BFD0B50C4B002206460F46FFF798
:106DF000EFFCFFF787FF0446FFF770FC074B00220C
:106E0000FFF7E6FC02460B4630463946FFF728FB03
:106E1000FFF778FF2146D0BD0000F03D0000F041B3
:106E2000002301461A46184600F0B8BE002100F0C3
:106E3000A9BE0A44914200F1FF3300D1704710B55A
:106E400011F8014B03F8014F9142F9D110BD0244F2
:106E50000346934200D1704703F8011BF9E7000095
:106E600038B5104B1D68AB6B0446B3B91820FEF75C
:106E7000A3F90246A86320B90B4B0C484221FEF748
:106E8000CBF90B490B4BC0E900130B4B83600B2371
:106E9000838100210120C2E90401AB6B00221C6147
:106EA0005A6138BD60E40320F98F0B0010900B008D
:106EB0000E33CDAB34126DE6ECDE0500034611F85F
:106EC000012B03F8012B002AF9D17047024B014630
:106ED000186800F003B800BF60E4032037B504462B
:106EE00008460D4600F00FF8421C1146204601925C
:106EF000FEF78AF9044618B1019A2946FFF799FF6F
:106F0000204603B030BD034613F8012B002AFBD105
:106F1000181A0138704710B57AB103460139841840
:106F200013F8010B11F8012F904201D1A34201D1B6
:106F3000801A10BD0028F3D1FAE71046F9E770B5C2
:106F400004460D4645EC104B164601F081FD51EC10
:106F5000100B7EB1C5F30A53C3F16B03002B09DD9F
:106F60001B0503F17F55002405F5401522462B46ED
:106F7000FFF72EFC70BD00002DE9F04F2DED028BC8
:106F80009DB01F4600231893A24B13921B680593D4
:106F9000044618468846FFF7B6FF4FF0000A05463C
:106FA0004FF0000BCDF85C80179B1A782B2A4ED03F
:106FB0003BD80D2A34D8082A34D8002A3ED00023E2
:106FC0000A93179E3378302B40F0B080737803F02B
:106FD000DF03582B68D10A9B019318AB02970093EB
:106FE0008D4A19AB17A9204600F0A2FE10F0070742
:106FF000054605D0062F2CD10136002317960A939B
:10700000139B002B40F090850A9BEBB152460BF18D
:10701000004343EC102B1DB0BDEC028BBDE8F08F9C
:10702000202ACCD101331793BEE72D2AC7D10122E4
:107030000A925A1C17925B78002BC2D1139BCDF891
:107040005C80002B40F06E8552465B46E1E70022F3
:10705000EEE7189A3AB135211AA801F004FE189902
:10706000204601F0C3F9013F042F06D8DFE807F0FE
:107070000A0314170A00DDE91AAB2807C0D54BF044
:10708000004BBDE7DDE91AA3199A23F4801302F23D
:10709000334243EA025BF0E7DFF880B1EDE76FF0DF
:1070A000004B4FF0FF3AE8E7179B5A1C17925B78AA
:1070B000302BF9D0002BA3D001234FF0000904930B
:1070C000179B0893CDF81C904F460A221798067814
:1070D000A6F13003D9B209292AD905992A46FFF722
:1070E0001AFF98B3002032463D4605900346652AB4
:1070F00001D0452A18D11DB9049A02439ED000251B
:10710000DDF85C8008F10102179298F801202B2A23
:1071100075D02D2A7BD04FF0000CA2F13001092947
:1071200040F28280CDF85C8000269DE00023C4E719
:10713000082FD8BF079900F10100DABF02FB013325
:10714000079302FB093901371790BFE7179B5A19BC
:1071500017925A5D002F37D005903D46A2F13003BB
:10716000092B12D90123C2E7179B5A1C17925A7890
:107170000130302AF8D0A2F13103082B00F2D98473
:10718000179B0590002008930546303A00F1010353
:1071900014D00599194405912B4600EB050E0A21E0
:1071A000734513D12B18082B05F1010505441CDC90
:1071B00007990A2303FB012307930023179A511C05
:1071C000179152781846C9E73846D2E7082B04DCF5
:1071D000079E4E4307960133E2E703F1010CBCF131
:1071E000100FD8BF01FB09F9F5E7102DDCBF0A230A
:1071F00003FB0929E1E70023059301237CE74FF016
:10720000000C08F10202179298F8022085E74FF06F
:10721000010CF6E788920B009C900B000000F07FB9
:10722000179A511C17915278302AF9D0A2F13101E6
:1072300008293FF679AFA2F1300E179A0692179AF5
:10724000511C17915278A2F13006092E37D9069EAB
:10725000891B082944F61F6602DC7645A8BF7646DE
:10726000BCF1000F00D07642002D4DD104990143AE
:107270007FF4C6AE002B7FF4E1AE692A27D024DC70
:10728000492A24D04E2A7FF4D9AE9F4917A800F08E
:10729000A7FF00283FF4D2AE179B1B78282B2DD1D7
:1072A0009A491AAA17A800F0AFFF052826D11B9B00
:1072B000DDF868A043F0FF4B4BF4E00BA0E60A2199
:1072C00001FB0E2EAEF1300EB9E76E2ADBE79049D6
:1072D00017A800F085FF00283FF4B0AE179B8D493A
:1072E000013B17A8179300F07BFF10B9179B0133E0
:1072F0001793DFF830B24FF0000A81E68648FFF7B7
:10730000A3F85BEC10AB7BE6059B0798F31A002F04
:1073100008BF2F46102D0693A846A8BF4FF01008AF
:10732000FFF7DCF9092D82468B4613DD7B4B03EB1F
:10733000C80353E91223FFF74BFA824648468B46AF
:10734000FFF7CCF902460B4650465946FFF78AF83C
:1073500082468B460F2D38DC069B002B3FF450AE47
:1073600024DD162B0BDC6D4901EBC301D1E90001D3
:1073700052465B46FFF72CFA82468B4640E6069A59
:10738000C5F12503934220DB644CC5F10F0504EBE6
:10739000C50152465B46D1E90001FFF719FA069B89
:1073A0005D1B04EBC504D4E90023E3E7069B163319
:1073B0000BDB059B9E1B594B03EBC606D6E900234E
:1073C00050465946FFF72EFBD6E7069BA5EB08086B
:1073D0009844B8F1000F74DD18F00F030AD04F493C
:1073E00001EBC30152465B46D1E90001FFF7F0F91A
:1073F00082468B4638F00F084FD0B8F59A7F22DDD1
:1074000000252E46079505952223DFF818B1236045
:107410004FF0000A079B002B3FF4F2AD189920466D
:1074200000F0E4FF0599204600F0E0FF31462046D9
:1074300000F0DCFF0799204600F0D8FF29462046DF
:1074400000F0D4FFDCE5364B049300234FEA281804
:10745000504659469946B8F1010F21DC0BB18246DE
:107460008B462F4BABF1547B03EBC90952465B466D
:10747000D9E90001FFF7ACF92A4B0A460B402A492B
:107480008B428246BCD8A1F580118B4286BFDFF8C3
:107490009CB04FF0FF3A02F1547B0023049384E048
:1074A00018F0010F05D0049BD3E90023FFF790F9F2
:1074B0000123049A083209F101094FEA680804928D
:1074C000C9E7EAD0C8F1000818F00F020AD0134B40
:1074D00003EBC20350465946D3E90023FFF7A2FA53
:1074E00082468B465FEA2818D7D0B8F11F0F1FDD00
:1074F00000252E460795059522234FF0000A4FF0F0
:10750000000B236086E700BF96900B00B0900B0045
:107510008D900B0090900B007F8D0B0048930B001B
:1075200020930B000000F07F0000A07CFFFFEF7FA6
:1075300018F0100318BF6A23DFF8AC930493504689
:107540005946002318F0010F04D0D9E90023FFF7B2
:107550003FF901235FEA680809F10809F2D10BB18C
:1075600082468B46049BC3B1CBF30A52C2F16B0334
:10757000002B594611DD1F2B40F32481342BDEBF35
:10758000C2F14B024FF0FF3303FA02F24FF0000A50
:10759000CCBF4FF05C7B02EA010B00220023504677
:1075A0005946FFF77DFB0028A2D1079B009308995D
:1075B0002B463A46204600F081FF079000283FF412
:1075C0001FAF059B9E1B069B002BB4BF33460023B9
:1075D0000C93069B002523EAE37312932E46079B28
:1075E0002046596800F0C2FE059000283FF40CAF19
:1075F000079B1A69023203F10C0192000C30FFF76D
:1076000018FC4BEC10AB1AAA19A9204601F09CFA01
:107610004BEC18AB189000283FF4F6AE0121204641
:1076200000F0E6FF064600283FF4EEAE199B0499F1
:10763000002BABBF0C9A129A129FDDF83090ACBFB2
:1076400003EB0209D71A1A9AA3EB01089044A14B45
:1076500008F1FF389845C2F1360280F2C780A3EBEB
:1076600008031F2BA2EB03024FF0010100F3B180CE
:1076700001FA03F30D930023089309EB0208049B1E
:10768000C14517441F444B46A8BF4346BB42A8BF51
:107690003B46002BC2BFA8EB0308FF1AA9EB030966
:1076A0000C9B002B17DD31461A46204601F060F88E
:1076B000064600283FF4A8AE0146189A204600F07E
:1076C000ADFF0B9000283FF49FAE1899204600F0C4
:1076D0008DFE0B9B1893B8F1000F00F38C80069B76
:1076E000002B08DD129A0599204601F041F805901B
:1076F00000283FF489AE002F08DD05993A46204660
:1077000001F090F8059000283FF47EAEB9F1000F2B
:1077100008DD31464A46204601F084F80646002836
:107720003FF472AE059A1899204601F007F9054614
:1077300000283FF469AEC3680B930023C360314651
:1077400001F0E0F8002860DA0B9B53EA0A0340F0EE
:107750008280CBF31303002B7DD12BF000431B0D54
:107760001B05B3F1D66F76D96B6913B92B69012B61
:1077700071DD29460122204601F054F831460546C4
:1077800001F0C0F8002866DD0499534A5B460029E1
:1077900000F0818002EA0B01B1F1D66F7BDCB1F120
:1077A0005C7F7FF7A9AE4D4B504659460022FFF74C
:1077B0000FF80B46034308BF222382468B4608BFBF
:1077C00023602BE64FF0FF3202FA03F303EA0A0AC2
:1077D000E3E6C8F17F4808F57F0808F57B4808F123
:1077E000E20801FA08F308930D9146E70023089395
:1077F00001230D9341E718994246204601F012F803
:10780000189000287FF46BAFFEE55F466ED10B9AAF
:10781000CBF3130342B3324A934228D1049B51461F
:10782000EBB12D4B3B40B3F1D46F4FF0FF3219D881
:107830001B0DC3F16B0302FA03F3994217D1294BD5
:107840009F4202D101313FF4DFAD234B3B4003F5B2
:10785000801B4FF0000A049B002BA4D1DEE54FF003
:10786000FF33EAE71346E8E753EA0A038CD0089BA4
:10787000DBB13B42EFD00B9B049A50465946C3B153
:10788000FFF75DFB02460B4651EC180BFEF7EAFDD5
:1078900082468B46DFE71340A3F580136FEA135B44
:1078A0006FEA0B5B4FF0FF3AD5E70D9B13EA0A0F27
:1078B000E0E7FFF744FB02460B4651EC180BFEF7DE
:1078C000CFFD0022002382468B46FFF7E9F900280E
:1078D000C1D011E602FCFFFF0000F07F000050392C
:1078E000FFFF0F00FFFFEF7FC8900B0031462846D7
:1078F00001F086F959EC108B10EE100A00224FF0BF
:1079000080434946FFF7E0F900287AD00B9B002B13
:107910004AD0954B0022CDE90823DFF84C924FF076
:107920000008924B3B400D930D9A914B9A4240F0C8
:10793000B080DDE90801A7F1547B4BEC10ABCDE939
:10794000080101F085F8DDE9080153EC102BFEF782
:107950003FFF52465B46FEF785FD0B468349854A4D
:1079600019409142824660D918EE903A02F1547261
:10797000934204D118EE103A01333FF445ADDFF8DD
:1079800000B24FF0FF3A1899204600F02FFD0599FC
:10799000204600F02BFD3146204600F027FD294609
:1079A000204600F023FD1AE6BAF1000F1BD1CBF3FD
:1079B0001303F3B96C4B002240464946FFF77AF9AE
:1079C000D0B9404649466C4B0022FEF701FF804685
:1079D000894609F10043CDF850801593DDE9142361
:1079E000CDE908239DE7BAF1010F02D1002F3FF442
:1079F00083AD624B00228EE7DFF87C914FF00008E8
:107A0000E7E75D4B404649460022FEF7E1FE0B9B4F
:107A10008046894633B901F100430E900F93DDE9AA
:107A20000E23DDE7CDE90E89F9E703F1547B049BD2
:107A3000002BA8D12BF000430D9A1B0D1B059A4279
:107A4000A1D14046494601F06FF9FEF793FE024688
:107A50000B4640464946FEF703FD0B9ACBF3130352
:107A600043EA0A0313438046894655D036A3D3E937
:107A70000023FFF71FF900287FF4D0AC34A3D3E92B
:107A8000002340464946FFF733F900283FF47BAF17
:107A9000C4E4049B33B30D9BB3F1D46F22D82EA35F
:107AA000D3E9002340464946FFF70EF9A0B1494605
:107AB0004046FFF727F9012838BF0120FEF70EFEE8
:107AC0000B9B8046894623BB01F100431090119324
:107AD000DDE91023CDE90823099B0D9A03F1D66354
:107AE0009B1A0993DDE90801B0EE480AF0EE680A36
:107AF000CDE9080100F0ACFFDDE9080153EC102BE3
:107B0000FEF766FE53EC182BFEF7ACFC82468B4664
:107B10008DE7CDE91089DBE711A3D3E90023FFF757
:107B2000C9F8B2E700230A93139A179B1360FFF773
:107B30006BBA652A3FF45FAB452A3FF45CAB012387
:107B4000FFF794BBAFF300809535A094FFFFDF3FB4
:107B500035E5AF350000E03F0000C0FFFFFFDF412B
:107B60009535A094FFFFCF3F0000F03F0000F07F6D
:107B70000000E07FFFFF9F7C0000E03F0000F0BFBF
:107B8000FFFFEF7F0A4601460248034B0068FFF7FC
:107B9000F3B900BF60E40320CCE403202DE9F843EF
:107BA000DFF8B8800646D8F800001F460D4691461B
:107BB00000F0C6FB254B1C6834B9254C1C60254BD6
:107BC00013B11B68C4F8883063681F2B07DDD8F831
:107BD000000000F0B7FB4FF0FF30BDE8F8834EB374
:107BE000D4F8880088B91C4B23B9D8F8000000F0FD
:107BF000A8FBF0E74FF48470FDF7DEFA0028F4D01C
:107C00000023C0E94033C4F88800636840F823903B
:107C100001229A4000EB8301D0F800311343C0F8F1
:107C20000031022EC1F8807002BFD0F80431134336
:107C3000C0F804316368D8F800005A1C023362604F
:107C400044F8235000F07EFB0020C6E7E8E703205D
:107C50005CE7032000000000B9510B00C4E40320DE
:107C60000369B3EB611F2DE9F0434FEA611200F1A4
:107C7000140445DD11F01F0104EB830604EB8205BB
:107C80000CD100F110072946B14234D39B1A9B0056
:107C9000EA1E964238BF0023234415E054F82270B0
:107CA000C1F12008CF4005F1040EA1467645F44607
:107CB00015D89A1A9200043A0135AE4238BF002214
:107CC000A318A75007B104331A1BA3424FEAA2021C
:107CD00008BF0023026108BF4361BDE8F083DCF800
:107CE00000C00CFA08FC4CEA070749F8047B5EF870
:107CF000047BCF40DAE751F804CB47F804CFC3E761
:107D00002346E1E7A0F13003092B02D82038C0B2A6
:107D10007047A0F16103052B01D84738F7E7A0F1C0
:107D20004103052B01D82738F1E7002070470000F8
:107D30002DE9F04F2DED028B89B008EE100A049367
:107D4000B44B1B68019318468B469046FFF7DBF84F
:107D5000019BDBF800200344824613F8013C0593A5
:107D6000931CC2F1FF2202F57F02FE32D1181F469A
:107D700013F8010B00913028F8D0FFF7C3FF044639
:107D800000283AD1019952463846FFF7C4F8054613
:107D9000002868D117F80A0007EB0A06FFF7B2FFC0
:107DA000002862D03346187830281F4603F10103BB
:107DB000F9D0FFF7A7FF0123B0FA80F46409354634
:107DC00000933A46164601323078FFF79BFF0028B1
:107DD000F8D1019952463046FFF79DF880B94DB968
:107DE00006EB0A052A46164601323078FFF78AFF6D
:107DF0000028F8D1AD1BAD0004E000242546E0E7E3
:107E0000002DF7D1337803F0DF03502B3BD173788B
:107E10002B2B2CD02D2B2ED0711C4FF00009087865
:107E2000FFF770FF431EDBB2182B2CD8A0F1100215
:107E300011F8010FFFF766FF431EDBB2182B1DD9A7
:107E4000B9F1000F00D052421544CBF80010E4B154
:107E5000009B002B14BF00270627384609B0BDEC55
:107E6000028BBDE8F08F3E4625460124CAE74FF05D
:107E70000009B11CD3E74FF00109FAE70A2303FB1D
:107E80000202103AD4E73146DFE7F31B013B2146FB
:107E9000072B0BDC18EE100A00F068FA044640B914
:107EA0005D4B0246DE215D48FDF7B6F901315B10FE
:107EB000EEE700F114094FF0000BCAF10103CDF811
:107EC0000890CDF800B00693B74240D30298009BCB
:107ED00040F8043BA0EB09008010460120611846E1
:107EE00000F036FB301AD8F80060B04263DD871B23
:107EF0003946204600F0DAFE8246A8B17B1E5911B1
:107F000003F01F0259F821104FF0010A0AFA02F299
:107F10000A4209D0534505DDB91E204600F0C6FED1
:107F2000002845D14FF0020A39462046FFF798FE57
:107F30003D44D8F80830AB424CDA18EE100A21461E
:107F400000F054FA149A00231360A32785E7731EE8
:107F5000059A039316F8013C934219D0BBF1200F08
:107F600007D1029B009A43F8042B0293002300934D
:107F70009B4616F8010CFFF7C5FE009B00F00F00B2
:107F800000FA0BF0034300930BF1040B039B0DE08D
:107F9000039B069A1344BB42E0D31846019907930A
:107FA0005246FEF7B8FF079B0028D7D11E468BE745
:107FB0004FF0030AB8E70ADA371A214618EE100A1A
:107FC0003A4600F02FFCED1B044600F114094FF077
:107FD000000AAEE7D8F80400A84272DD451BAE42A5
:107FE00036DCD8F80C30022B2AD0032B2CD0012BF6
:107FF0001CD1AE421AD1012E12D1049AD8F8043005
:10800000136001232361C9F80030149B62271C60B0
:1080100023E700BF88920B00F1910B0002920B0046
:10802000711E204600F042FE0028E6D118EE100A2C
:10803000214600F0DBF9149A0023136050270CE767
:10804000159B002BF2D1D8E7159B002BD5D1EDE77E
:108050006F1EBAF1000F31D127B13946204600F02A
:1080600025FE82467B11012159F8233007F01F07B6
:1080700001FA07F71F422946204618BF4AF0020AB4
:10808000761BFFF7EDFDD8F804500227BAF1000F78
:1080900048D0D8F80C30022B15D0032B17D0012B69
:1080A00009D11AF0020F06D0D9F800004AEA000AF6
:1080B0001AF0010F0ED147F0100733E04FF0010A1C
:1080C000D0E70127E2E7159BC3F101031593159B48
:1080D000002BF0D0D4F810B004F114034FEA8B0A4F
:1080E00003EB8B014FF0000C184653F8042BB2F150
:1080F000FF3F1CD001320260022F04F114033FD174
:10810000D8F80020013AB2420AD17111012253F885
:10811000213006F01F0602FA06F61E4218BF174667
:1081200047F02007149B1C60049B1D6095E6994254
:1081300043F804CCD8D8A3689B4519DB616818EED6
:10814000100A013100F012F9814618B91A4B0246A3
:108150008421A8E62269023204F10C0192000C305D
:10816000FEF767FE214618EE100A00F03FF94C4674
:1081700023695A1C04EB8303226101225A61BBE785
:1081800022695A450BDD01212046FFF769FDD8F829
:1081900008300135AB42FFF6D0AE0127C0E716F03C
:1081A0001F06FAD05344C6F1200653F8040C00F021
:1081B000CFF9B042E7DBF0E7F1910B00C2F1080222
:1081C000920070B5C2F120064368046803FA06F510
:1081D0002C43D340046040F8043F8842F4D370BD80
:1081E00030B50368013311F8014B14B90360012065
:1081F00030BD13F8012BA2F14105192D98BF203293
:10820000A242F0D00020F3E72DE9F04F0B685E1199
:1082100002EB860613F01F0387B018BF0436002553
:10822000371F904602680193824646F8045CB946BF
:108230003C460295AB465178531C039341B3084624
:1082400005920491FFF75EFD00284FD10499059A2D
:10825000202918D8029B9B4513DD4C4506D2072DDB
:1082600004DC2A4649462046FFF7A8FF444550D97A
:108270000023A4F1040944F8043CCDF808B04C46AE
:108280001D46039AD7E7292956D10232CAF80020A1
:10829000BBF1000F50D04C4506D2072D04DC2A4616
:1082A00049462046FFF78AFF444534D9A8F1040225
:1082B000234653F8041B42F8041F9F42F9D23B1B8C
:1082C00023F0030304330134033EB44288BF042384
:1082D0004344002243F8042B9F42FBD23B681BB966
:1082E000474527D101233B60052026E00135082DB5
:1082F0000BF1010B06DD4445C3D9002344F8043CCF
:108300000125043C226800F00F0040EA02122260BE
:10831000B7E70825B5E7019B002BDFD04FF0FF3210
:10832000C3F1200322FA03F356F8042C1A4046F84E
:10833000042CD3E7043FD1E7042007B0BDE8F08F59
:1083400070477047704782B001B901A942B14BB183
:1083500013780B601278101E18BF012002B070470E
:108360001046FBE76FF00100F8E7000070B5466AC1
:1083700004460D4676B91020FCF71EFF02466062E7
:1083800020B9184B18486621FCF746FFC0E9016682
:108390000660C660666AF36883B1636ADB6853F897
:1083A0002500B8B9012101FA05F6721D9200204698
:1083B00000F09DFC60B1C0E901560EE021220421CD
:1083C000204600F094FC636AF060DB68002BE4D187
:1083D000002070BD026843F825200023C0E9033364
:1083E000F7E700BFF98F0B009C920B0070B5466A4F
:1083F00005460C4676B91020FCF7DEFE02466862A0
:1084000020B9094B09488A21FCF706FFC0E901663B
:108410000660C6603CB16B6A6268DB6853F8221084
:10842000216043F8224070BDF98F0B009C920B0035
:108430002DE9F0410D6907460C461E4601F1140C6A
:108440000020DCF8003099B202FB01611E0C0B0C1D
:1084500002FB063389B2013001EB034185424CF83F
:10846000041B4FEA1346ECDC0EB3A368AB4219DCE5
:10847000616838460131FFF779FF804628B9024626
:108480000C4B0D48B521FCF7C7FE2269023204F1FE
:108490000C0192000C30FEF7CCFC21463846FFF769
:1084A000A5FF444604EB850301355E612561204646
:1084B000BDE8F081F1910B009C920B002DE9F8438F
:1084C0000C4615461F4609220833064693FBF2F375
:1084D000002101229A4209DB3046FFF747FF40B9ED
:1084E0000246194B1948CE21FCF796FE5200013185
:1084F000F0E7089B4361092D4FF00103036116DD8E
:1085000004F10909C8462C4418F8013B0146303BE8
:108510000A223046FFF78CFFA045F5D1A5F10804EB
:108520004C442D1B6319BB4204DBBDE8F8830A34BD
:108530000925F6E714F8013B0146303B0A22304694
:10854000FFF776FFEEE700BFF1910B009C920B0066
:10855000030C1B04D3B90004102310F07F4F04BF99
:108560000002083310F0704F04BF0001043310F014
:10857000404F04BF80000233002805DB10F0804F1D
:1085800003F1010308BF2023184670470023E4E7E6
:10859000036813F0070201460BD0DA0723D49807CB
:1085A00049BF5B089B0801200B605CBF0B60022089
:1085B000704798B2A8B91B0C1020DAB20AB908307B
:1085C0001B0A1A0704BF1B0904309A0704BF9B0843
:1085D0000230DA0703D45B0800F1010005D00B601C
:1085E00070471046E9E700207047202070470000E0
:1085F00010B50C460121FFF7B9FE024628B9054B1C
:1086000005484FF4A071FCF707FE012344610361A4
:1086100010BD00BFF1910B009C920B002DE9F04FB3
:1086200091460A69D9F810309A42B8BF0B460C46F9
:10863000BCBF4C4699462769D9F810A0A368616869
:1086400007EB0A06B34285B0B8BF0131FFF78EFED3
:1086500030B90246444B454840F25D11FCF7DCFD61
:1086600000F1140505EB86082B460022434521D373
:1086700004F1140303EB870709F1140303EB8A02E7
:1086800002923A1B153A22F00302043204F115015A
:108690008F4238BF04220192029A03939A420CD867
:1086A000002E03DD58F8043D002B5AD0066105B0BA
:1086B000BDE8F08F43F8042BD8E7B3F800A0BAF177
:1086C000000F24D004F1140EA9464FF0000C5EF800
:1086D000042BD9F800101FFA82FB89B20AFB0B1198
:1086E0004FEA124BD9F8002061444FEA124C0AFBC2
:1086F0000BC202EB114289B241EA0241774549F8C7
:10870000041B4FEA124CE2D8019A45F802C0039AC2
:10871000B2F802900433B9F1000F20D0296804F1B7
:10872000140CAE464FF0000ABCF800B0BEF80220B0
:1087300009FB0B22924489B241EA0A414EF8041B1C
:108740005CF8042BBEF80010120C09FB021101EBBF
:108750001A4167454FEA114AE6D8019AA9500435F3
:108760009AE7013E9CE700BFF1910B009C920B0041
:108770002DE9F843154612F0030206460F4607D0CE
:10878000254C013A002354F82220FFF751FE0746FA
:10879000AD103DD0746A7CB91020FCF70DFD024687
:1087A000706228B91D4B1E484FF4D771FCF734FD99
:1087B000C0E901440460C460D6F82480D8F80840B9
:1087C0004CB940F271213046FFF712FF0023C8F880
:1087D0000800044603604FF00009EB070AD539464C
:1087E00022463046FFF71AFF394680463046FFF7EB
:1087F000FDFD47466D100BD0206838B92246214652
:108800003046FFF70BFF2060C0F800900446E4E715
:108810003846BDE8F88300BF10940B00F98F0B00B9
:108820009C920B002DE9F0470C464968236903EB45
:108830006218A368074691464FEA621A08F10106DA
:10884000B3420BDB3846FFF791FD054648B90246B7
:108850002A4B2B4840F2D911FCF7DEFC01315B00BA
:10886000EEE7002300F1140100F110021846534511
:1088700037DB20692AEAEA7A04F1140319F01F09A8
:1088800001EB8A0103EB80002FD0C9F1200E8A464C
:108890004FF0000C1A6802FA09F242EA0C024AF898
:1088A000042B53F8042B984222FA0EFCF2D8031B37
:1088B000153B23F00303043304F11502904238BF43
:1088C000042341F803C0BCF1000F01D008F10206F7
:1088D000013E38462E612146FFF788FD2846BDE857
:1088E000F08742F8040F0133C1E7043953F8042B31
:1088F00041F8042F9842F9D8EAE700BFF1910B0044
:108900009C920B0030B502690C69121B0ED100F16C
:108910001403143103EB840001EB840150F8045D6F
:1089200051F8044DA54203D005D30122104630BDB5
:108930008342F3D3FAE74FF0FF32F7E72DE9F84F20
:108940000C460646114620469046FFF7DBFF051E03
:1089500010D129463046FFF709FD30B93A4B02469F
:1089600040F232213948FCF757FC0123C0E90435B5
:10897000BDE8F88FA4BF4346A0463046D8F804109F
:10898000A6BF1C4600250125FFF7F0FC20B92E4BA1
:1089900002464FF41071E5E7D8F810702669C560FB
:1089A00004F1140908F1140500F1140E05EB870C0D
:1089B00009EB860608F11002F246002159F8043B43
:1089C00052F804BF1FFA83F811FA8BF11B0CA1EBCC
:1089D0000808C3EB1B4303EB28431FFA88F819145C
:1089E0004E4548EA03434AF8043BE7D8331B153B9E
:1089F00023F0030304331534A64238BF04231D4477
:108A000073449E462E4666450ED30CF10302521B5C
:108A100022F00302033DAC4538BF00221A4452F84D
:108A2000043D7BB10761A3E756F8048B11FA88F285
:108A3000141404EB184492B242EA04424EF8042B98
:108A40002114E0E7013FEAE7F1910B009C920B0053
:108A500082B08DED000B019B12491940A1F15071BC
:108A6000002905DD00220B4643EC102B02B07047B5
:108A70004942B1F1A07F4FEA21504FF000024FF080
:108A8000000304DA4FF4002141FA00F3ECE7A0F10F
:108A900014011E29DABF4FF0004020FA01F1012134
:108AA0000A46E1E70000F07FF8B5056900F1140718
:108AB00007EB85052E1F55F8044C2046FFF748FDAF
:108AC000C0F120030A28DFF87CC00B6014DCC0F181
:108AD0000B0E24FA0EF1B74241EA0C0334BF55F8ED
:108AE000081C0021153004FA00F021FA0EF140EACA
:108AF000010243EC102BF8BDB7423ABF55F8081CF1
:108B0000A5F1080600210B3817D0C0F1200C04FA9B
:108B100000F5BE4221FA0CF445EA04058CBF56F874
:108B2000044C002445F07F5301FA00F024FA0CF4C1
:108B300043F4401340EA0402DBE744EA0C030A462C
:108B4000D7E700BF0000F03F2DE9F7438946012138
:108B500057EC106B9046FFF709FC044630B902460B
:108B6000254B264840F20A31FCF756FBC7F30A555D
:108B7000C7F3130335BB002E019328D06846009637
:108B8000FFF706FD009900B3019AC0F1200302FA35
:108B900003F30B43C24063610192019BA361002B6D
:108BA00014BF022201222261D5B1A5F2334505444A
:108BB000C9F80050C0F13500C8F80000204603B0E5
:108BC000BDE8F08343F48013D5E76161E5E701A8D0
:108BD000FFF7DEFC019B6361012222612030E3E7A5
:108BE00004EB8203A0F23240C9F800001869FFF7D5
:108BF000AFFCC0EB4210DFE7F1910B009C920B0041
:108C00002DE9F74F884669468146FFF74DFF01A9D8
:108C1000404655EC104BFFF747FFD9F81030D8F815
:108C20001020A3EB020CDDE900329B1A03EB4C137E
:108C300051EC100B002BD6BF0A462A46C3EB033378
:108C40008B462F46D4BF02EB035B02EB0357204653
:108C500010EE102A5B463946FDF7E4FE41EC100B9E
:108C600003B0BDE8F08F013970B5491114690131C5
:108C700002F1140300EB810103EB8404051FA342FE
:108C80000CD3A31A113B23F003031132A24288BF75
:108C9000002318440023884205D370BD53F8046BA9
:108CA00045F8046FEBE740F8043BF4E700F11402E9
:108CB00000694B11984210B511DB0ADD11F01F015C
:108CC00007D052F8234024FA01F000FA01F18C4257
:108CD0000BD102EB8303934203D8002010BD03465F
:108CE000F7E753F8041D0029F5D00120F6E713B586
:108CF0004A4311460192FCF787FA044618B1019ADB
:108D00000021FEF7A4F8204602B010BD49B1FF2AA9
:108D100085BF8A2303600A704FF0FF3098BF01209F
:108D2000704708467047000038B50022002304460B
:108D30000D46FDF7BFFF28B920462946BDE838405B
:108D4000FEF750B8204605F10041FEF74BF84042CF
:108D500061EB410138BD00BF21400B005D400B00BD
:108D600085400B0089400B000000000050252E318B
:108D7000662C20534D25642C2055502575000D0080
:108D8000464F5243455F534C4545500031333A32CC
:108D9000363A3437004E6F76202039203230323266
:108DA0000031363A30303A30300030383A30303AEC
:108DB000303000686F6F6B2D726573706F6E736506
:108DC0002F4745545F574541544845525F444154ED
:108DD00041000000000000000000000089410B007D
:108DE000DD410B00E5400B0000000000000000002A
:108DF00045410B0061410B00B3400B006D696B6B8B
:108E00003139393070617669610050617669614E3F
:108E10006574204F666669636500323030302D30EE
:108E2000312D30315430303A30303A3030001F1C60
:108E30001F1E1F1E1F1F1E1F1E000000000000001F
:108E40000000000097520B008D520B0083520B0064
:108E500079520B006D520B0061520B0021610B0027
:108E600029610B0055520B004D520B0043520B0071
:108E700039520B0059610B00776972696E670053B4
:108E8000797374656D20736C65657020636F6E66B1
:108E9000696775726174696F6E20697320696E7697
:108EA000616C69642E006170700025592D256D2D4F
:108EB00025645425483A254D3A2553257A00617397
:108EC0006374696D65000000000000000000000090
:108ED00049570B004F570B008D570B005D570B0088
:108EE0004B570B000000000000000000BD5C0B00B1
:108EF000AD5C0B00AF5C0B00000000000000000048
:108F0000A35D0B000B5E0B00E15D0B002D550B000C
:108F1000D35D0B00A55D0B00B55D0B00055E0B007E
:108F2000C55D0B009D5D0B0000000000000000000F
:108F30009D5E0B00095F0B00E15E0B002D550B00E1
:108F4000B15E0B00CD5E0B00BF5E0B00DB5E0B0065
:108F50009F5E0B00A35E0B000000000000000000FD
:108F6000695F0B00B35F0B008B5F0B006B5F0B0047
:108F7000935F0B009B5F0B00A35F0B00AB5F0B00CD
:108F80000000000000000000C3600B00B9600B008F
:108F9000AF600B0065600B00A3600B0097600B00D7
:108FA00021610B0029610B008B600B0083600B00BB
:108FB00079600B006F600B0059610B00000000002E
:108FC00000000000E1600B00EB600B00F5600B009F
:108FD000FF600B0009610B0015610B0021610B00A4
:108FE00029610B0031610B003D610B0045610B00F5
:108FF0004F610B0059610B00005245454E54206DE6
:10900000616C6C6F63207375636365656465640090
:109010002F6D6E742F776F726B73706163652F772E
:109020006F726B73706163652F4743432D31302D31
:10903000706970656C696E652F6A656E6B696E73B9
:109040002D4743432D31302D706970656C696E6515
:109050002D34385F32303230313132345F31363096
:10906000363138303634312F7372632F6E65776C3A
:1090700069622F6E65776C69622F6C6962632F730A
:1090800074646C69622F72616E642E63006E660098
:10909000696E69747900616E00000000350000009F
:1090A000CEFBFFFFCB03000001000000000000002A
:1090B00034000000CEFBFFFFCB03000001000000E6
:1090C0000000000000000000BC89D897B2D29C3C90
:1090D00033A7A8D523F649393DA7F444FD0FA5329F
:1090E0009D978CCF08BA5B25436FAC642806681146
:1090F0000020202020202020202028282828282068
:10910000202020202020202020202020202020205F
:1091100020881010101010101010101010101010C7
:1091200010040404040404040404041010101010B7
:109130001010414141414141010101010101010181
:1091400001010101010101010101010110101010D3
:109150001010424242424242020202020202020253
:1091600002020202020202020202020210101010A7
:1091700020000000000000000000000000000000CF
:1091800000000000000000000000000000000000DF
:1091900000000000000000000000000000000000CF
:1091A00000000000000000000000000000000000BF
:1091B00000000000000000000000000000000000AF
:1091C000000000000000000000000000000000009F
:1091D000000000000000000000000000000000008F
:1091E000000000000000000000000000000000007F
:1091F0000042616C6C6F63207375636365656465C1
:1092000064002F6D6E742F776F726B73706163657E
:109210002F776F726B73706163652F4743432D31F6
:10922000302D706970656C696E652F6A656E6B694B
:109230006E732D4743432D31302D706970656C6915
:109240006E652D34385F32303230313132345F3137
:109250003630363138303634312F7372632F6E65C5
:10926000776C69622F6E65776C69622F6C696263D7
:109270002F7374646C69622F6764746F612D676506
:10928000746865782E630000A48E0B007F8D0B0040
:10929000C8E403204300504F534958002F6D6E74AB
:1092A0002F776F726B73706163652F776F726B735B
:1092B000706163652F4743432D31302D70697065B0
:1092C0006C696E652F6A656E6B696E732D474343DB
:1092D0002D31302D706970656C696E652D34385F85
:1092E00032303230313132345F313630363138302D
:1092F0003634312F7372632F6E65776C69622F6E0F
:1093000065776C69622F6C6962632F7374646C6932
:10931000622F6D707265632E630000000000000014
:109320000080E03779C34143176E05B5B5B8934661
:10933000F5F93FE9034F384D321D30F94877825A2D
:109340003CBF737FDD4F1575000000000000F03F4B
:109350000000000000002440000000000000594010
:109360000000000000408F40000000000088C34063
:1093700000000000006AF8400000000080842E41D8
:1093800000000000D01263410000000084D7974124
:109390000000000065CDCD41000000205FA002422A
:1093A000000000E876483742000000A2941A6D429F
:1093B000000040E59C30A2420000901EC4BCD64292
:1093C00000003426F56B0C430080E03779C341433D
:1093D00000A0D8855734764300C84E676DC1AB43B3
:1093E000003D9160E458E143408CB5781DAF1544D1
:1093F00050EFE2D6E41A4B4492D54D06CFF08044AC
:10940000F64AE1C7022DB544B49DD9794378EA44C0
:1094100005000000190000007D0000000D460B0053
:10942000A1520B0025540B001D550B00C1550B001C
:10943000D1550B0005560B00CD600B0031620B00BF
:10944000040000001400000003000000474E550017
:1094500069AACAB9E0AF8EA830001CF7D933FC0264
:04946000EA85F92779
:0C946400000000000000000000000000FC
:109470000300060009000000FC8D0B000A8E0B00A3
:10948000BE8E0B0064E4032000000000000000001A
:1094900000000000000000000000000000000000CC
:1094A00000000000000000000000000000000000BC
:1094B00000000000000000000000000000000000AC
:1094C000000000000000000000000000000000009C
:1094D000000000000000000000000000000000008C
:1094E0000000000000000000ECE70320FF00000087
:1094F0004300000000000000000000000000000029
:10950000000000000000000000000000000000005B
:109510004300000000000000000000000000000008
:10952000000000000000000000000000000000003B
:1095300043000000000000000000000000000000E8
:10954000000000000000000000000000000000001B
:1095500043000000000000000000000000000000C8
:1095600000000000000000000000000000000000FB
:1095700043000000000000000000000000000000A8
:1095800000000000000000000000000000000000DB
:109590004300000000000000000000000000000088
:1095A00000000000000000000000000000000000BB
:1095B0004300000000000000000000000000000068
:1095C000000000000000000000000000000000009B
:1095D0000D8D0B0047830B0000000000F0900B0086
:1095E000A48E0B007F8D0B007F8D0B007F8D0B00F9
:1095F0007F8D0B007F8D0B007F8D0B007F8D0B000F
:109600007F8D0B007F8D0B00FFFFFFFFFFFFFFFF34
:10961000FFFFFFFFFFFF00000100415343494900E6
:10962000000000000000000000000000000000003A
:1096300000000000000000000000415343494900C1
:10964000000000000000000000000000000000001A
:0C9650000000000000000000000000000E
:10965C00FFFFFFFF00000102030405060708090ACB
:10966C000B0C0D0E0F101112131415161718191AC6
:08967C001B1C1D1E1F2028000D
:0496840078563412CE
:04000003B0004020E9
:00000001FF
